{
  "contractName": "MarketPlace",
  "abi": [
    {
      "constant": true,
      "inputs": [],
      "name": "storeOwnerCount",
      "outputs": [
        {
          "name": "",
          "type": "uint256"
        }
      ],
      "payable": false,
      "stateMutability": "view",
      "type": "function",
      "signature": "0x04debb59"
    },
    {
      "constant": true,
      "inputs": [
        {
          "name": "",
          "type": "address"
        }
      ],
      "name": "storeOwners",
      "outputs": [
        {
          "name": "storeOwnerAddress",
          "type": "address"
        },
        {
          "name": "storeOwnerKey",
          "type": "uint256"
        },
        {
          "name": "firstName",
          "type": "string"
        },
        {
          "name": "lastName",
          "type": "string"
        },
        {
          "name": "isActive",
          "type": "bool"
        }
      ],
      "payable": false,
      "stateMutability": "view",
      "type": "function",
      "signature": "0x057cc2a1"
    },
    {
      "constant": true,
      "inputs": [],
      "name": "skuCount",
      "outputs": [
        {
          "name": "",
          "type": "uint256"
        }
      ],
      "payable": false,
      "stateMutability": "view",
      "type": "function",
      "signature": "0x22702473"
    },
    {
      "constant": true,
      "inputs": [],
      "name": "adminCount",
      "outputs": [
        {
          "name": "",
          "type": "uint256"
        }
      ],
      "payable": false,
      "stateMutability": "view",
      "type": "function",
      "signature": "0x2b7832b3"
    },
    {
      "constant": true,
      "inputs": [
        {
          "name": "",
          "type": "address"
        }
      ],
      "name": "customers",
      "outputs": [
        {
          "name": "customerAddress",
          "type": "address"
        },
        {
          "name": "customerKey",
          "type": "uint256"
        },
        {
          "name": "firstName",
          "type": "string"
        },
        {
          "name": "lastName",
          "type": "string"
        },
        {
          "name": "isActive",
          "type": "bool"
        }
      ],
      "payable": false,
      "stateMutability": "view",
      "type": "function",
      "signature": "0x336989ae"
    },
    {
      "constant": true,
      "inputs": [
        {
          "name": "",
          "type": "address"
        }
      ],
      "name": "admins",
      "outputs": [
        {
          "name": "adminAddress",
          "type": "address"
        },
        {
          "name": "adminKey",
          "type": "uint256"
        },
        {
          "name": "firstName",
          "type": "string"
        },
        {
          "name": "lastName",
          "type": "string"
        },
        {
          "name": "isActive",
          "type": "bool"
        }
      ],
      "payable": false,
      "stateMutability": "view",
      "type": "function",
      "signature": "0x429b62e5"
    },
    {
      "constant": true,
      "inputs": [],
      "name": "customerCount",
      "outputs": [
        {
          "name": "",
          "type": "uint256"
        }
      ],
      "payable": false,
      "stateMutability": "view",
      "type": "function",
      "signature": "0x9757e8a3"
    },
    {
      "constant": true,
      "inputs": [],
      "name": "storeCount",
      "outputs": [
        {
          "name": "",
          "type": "uint256"
        }
      ],
      "payable": false,
      "stateMutability": "view",
      "type": "function",
      "signature": "0xa1b141d4"
    },
    {
      "constant": true,
      "inputs": [
        {
          "name": "",
          "type": "uint256"
        }
      ],
      "name": "items",
      "outputs": [
        {
          "name": "name",
          "type": "string"
        },
        {
          "name": "sku",
          "type": "uint256"
        },
        {
          "name": "price",
          "type": "uint256"
        },
        {
          "name": "state",
          "type": "uint8"
        },
        {
          "name": "seller",
          "type": "address"
        },
        {
          "name": "buyer",
          "type": "address"
        }
      ],
      "payable": false,
      "stateMutability": "view",
      "type": "function",
      "signature": "0xbfb231d2"
    },
    {
      "constant": true,
      "inputs": [
        {
          "name": "",
          "type": "address"
        }
      ],
      "name": "ownerStoreFrontsCountMap",
      "outputs": [
        {
          "name": "",
          "type": "uint256"
        }
      ],
      "payable": false,
      "stateMutability": "view",
      "type": "function",
      "signature": "0xd7adf532"
    },
    {
      "constant": true,
      "inputs": [
        {
          "name": "",
          "type": "address"
        },
        {
          "name": "",
          "type": "uint256"
        }
      ],
      "name": "ownerStoreFrontIDsMapArr",
      "outputs": [
        {
          "name": "",
          "type": "uint256"
        }
      ],
      "payable": false,
      "stateMutability": "view",
      "type": "function",
      "signature": "0xe6191314"
    },
    {
      "constant": true,
      "inputs": [
        {
          "name": "",
          "type": "address"
        },
        {
          "name": "",
          "type": "uint256"
        }
      ],
      "name": "ownerStoreFrontsMapMap",
      "outputs": [
        {
          "name": "storeNumber",
          "type": "uint256"
        }
      ],
      "payable": false,
      "stateMutability": "view",
      "type": "function",
      "signature": "0xf205e981"
    },
    {
      "anonymous": false,
      "inputs": [
        {
          "indexed": false,
          "name": "accountAddress",
          "type": "address"
        }
      ],
      "name": "LogRegisteredAdmin",
      "type": "event",
      "signature": "0x935d7739628521501e8645c5ec7db4bd37e9df5e73229a2f4eee660660497236"
    },
    {
      "anonymous": false,
      "inputs": [
        {
          "indexed": false,
          "name": "accountAddress",
          "type": "address"
        }
      ],
      "name": "LogRegisteredCustomer",
      "type": "event",
      "signature": "0xc2d9373d77fba5321acddd9f4b8aa5968517854168c705830ce2e9e9a86cf95e"
    },
    {
      "anonymous": false,
      "inputs": [
        {
          "indexed": false,
          "name": "accountAddress",
          "type": "address"
        }
      ],
      "name": "LogRegisteredStoreOwner",
      "type": "event",
      "signature": "0x734765b09632d35d9db0ac9ac7b28ae07c812ed20302923ba707866f9fa74a98"
    },
    {
      "anonymous": false,
      "inputs": [
        {
          "indexed": false,
          "name": "storeOwnerAddress",
          "type": "address"
        },
        {
          "indexed": true,
          "name": "storeNumber",
          "type": "uint256"
        }
      ],
      "name": "LogRegisteredStoreFront",
      "type": "event",
      "signature": "0x8429e0c6f4d6518bbe01a6a52cdfa1d787de15f27c44d7e9aa712d1951f03abc"
    },
    {
      "anonymous": false,
      "inputs": [
        {
          "indexed": false,
          "name": "accountAddress",
          "type": "address"
        }
      ],
      "name": "LogUnRegisteredAdmin",
      "type": "event",
      "signature": "0x7d24b72bf22d2d662c9700540fd32920a5b5cec14223f2cdd6b64aae753bd36a"
    },
    {
      "anonymous": false,
      "inputs": [
        {
          "indexed": false,
          "name": "accountAddress",
          "type": "address"
        }
      ],
      "name": "LogUnRegisteredCustomer",
      "type": "event",
      "signature": "0xcdfc33621a58018e3a9749107bfc8e9ff0af3b2461922085e8995216e67c4655"
    },
    {
      "anonymous": false,
      "inputs": [
        {
          "indexed": false,
          "name": "accountAddress",
          "type": "address"
        }
      ],
      "name": "LogUnRegisteredStoreOwner",
      "type": "event",
      "signature": "0x622ef5767f2e59920239325a01cd4a48f80bf095492a1b5e9f8c5d35d12f8c54"
    },
    {
      "anonymous": false,
      "inputs": [
        {
          "indexed": false,
          "name": "storeOwnerAddress",
          "type": "address"
        },
        {
          "indexed": true,
          "name": "storeNumber",
          "type": "uint256"
        }
      ],
      "name": "LogUnRegisteredStoreFront",
      "type": "event",
      "signature": "0x43a8c77ec06fe8633dfc5e3ff3fe9b64ba34ec1d4f6f00cb640d2efba0e5e26d"
    },
    {
      "anonymous": false,
      "inputs": [
        {
          "indexed": false,
          "name": "sku",
          "type": "uint256"
        }
      ],
      "name": "ForSale",
      "type": "event",
      "signature": "0xa96ae0fc3224ebd79eebfe54bd130cc9cb94416cddd1f2386115e00b72532468"
    },
    {
      "anonymous": false,
      "inputs": [
        {
          "indexed": false,
          "name": "sku",
          "type": "uint256"
        }
      ],
      "name": "Sold",
      "type": "event",
      "signature": "0x92f64ca637d023f354075a4be751b169c1a8a9ccb6d33cdd0cb3520543995727"
    },
    {
      "anonymous": false,
      "inputs": [
        {
          "indexed": false,
          "name": "sku",
          "type": "uint256"
        }
      ],
      "name": "Shipped",
      "type": "event",
      "signature": "0xf00b9a5725b80c54016f42114f6ed7792d22eecb116011c4afac29c57bef6c95"
    },
    {
      "anonymous": false,
      "inputs": [
        {
          "indexed": false,
          "name": "sku",
          "type": "uint256"
        }
      ],
      "name": "Received",
      "type": "event",
      "signature": "0xa8142743f8f70a4c26f3691cf4ed59718381fb2f18070ec52be1f1022d855557"
    },
    {
      "constant": false,
      "inputs": [
        {
          "name": "firstName",
          "type": "string"
        },
        {
          "name": "lastName",
          "type": "string"
        }
      ],
      "name": "registerCustomer",
      "outputs": [
        {
          "name": "",
          "type": "bool"
        }
      ],
      "payable": false,
      "stateMutability": "nonpayable",
      "type": "function",
      "signature": "0xdb0f9894"
    },
    {
      "constant": false,
      "inputs": [
        {
          "name": "firstName",
          "type": "string"
        },
        {
          "name": "lastName",
          "type": "string"
        }
      ],
      "name": "registerAdmin",
      "outputs": [
        {
          "name": "",
          "type": "bool"
        }
      ],
      "payable": false,
      "stateMutability": "nonpayable",
      "type": "function",
      "signature": "0xf8f98b79"
    },
    {
      "constant": false,
      "inputs": [
        {
          "name": "firstName",
          "type": "string"
        },
        {
          "name": "lastName",
          "type": "string"
        }
      ],
      "name": "registerStoreOwner",
      "outputs": [
        {
          "name": "",
          "type": "bool"
        }
      ],
      "payable": false,
      "stateMutability": "nonpayable",
      "type": "function",
      "signature": "0xd2bf9177"
    },
    {
      "constant": false,
      "inputs": [],
      "name": "registerStoreFront",
      "outputs": [
        {
          "name": "",
          "type": "bool"
        }
      ],
      "payable": false,
      "stateMutability": "nonpayable",
      "type": "function",
      "signature": "0xe53081d7"
    },
    {
      "constant": false,
      "inputs": [],
      "name": "unregisterCustomer",
      "outputs": [
        {
          "name": "",
          "type": "bool"
        }
      ],
      "payable": false,
      "stateMutability": "nonpayable",
      "type": "function",
      "signature": "0x3bae81e1"
    },
    {
      "constant": false,
      "inputs": [],
      "name": "unregisterStoreOwner",
      "outputs": [
        {
          "name": "",
          "type": "bool"
        }
      ],
      "payable": false,
      "stateMutability": "nonpayable",
      "type": "function",
      "signature": "0x5172f77c"
    },
    {
      "constant": false,
      "inputs": [],
      "name": "unregisterAdmin",
      "outputs": [
        {
          "name": "",
          "type": "bool"
        }
      ],
      "payable": false,
      "stateMutability": "nonpayable",
      "type": "function",
      "signature": "0x847308a8"
    },
    {
      "constant": false,
      "inputs": [
        {
          "name": "storeNumber",
          "type": "uint256"
        }
      ],
      "name": "unregisterStoreFront",
      "outputs": [
        {
          "name": "",
          "type": "bool"
        }
      ],
      "payable": false,
      "stateMutability": "nonpayable",
      "type": "function",
      "signature": "0x00b2e196"
    },
    {
      "constant": true,
      "inputs": [],
      "name": "getCustomers",
      "outputs": [
        {
          "name": "",
          "type": "address[]"
        }
      ],
      "payable": false,
      "stateMutability": "view",
      "type": "function",
      "signature": "0xf1ba7127"
    },
    {
      "constant": true,
      "inputs": [
        {
          "name": "customeraddress",
          "type": "address"
        }
      ],
      "name": "getCustomerInfo",
      "outputs": [
        {
          "name": "firstName",
          "type": "string"
        },
        {
          "name": "lastName",
          "type": "string"
        },
        {
          "name": "isActive",
          "type": "bool"
        }
      ],
      "payable": false,
      "stateMutability": "view",
      "type": "function",
      "signature": "0xb3205410"
    },
    {
      "constant": true,
      "inputs": [],
      "name": "getStoreOwners",
      "outputs": [
        {
          "name": "",
          "type": "address[]"
        }
      ],
      "payable": false,
      "stateMutability": "view",
      "type": "function",
      "signature": "0x91f4245a"
    },
    {
      "constant": true,
      "inputs": [
        {
          "name": "storeowneraddress",
          "type": "address"
        }
      ],
      "name": "getStoreOwnerInfo",
      "outputs": [
        {
          "name": "firstName",
          "type": "string"
        },
        {
          "name": "lastName",
          "type": "string"
        },
        {
          "name": "isActive",
          "type": "bool"
        }
      ],
      "payable": false,
      "stateMutability": "view",
      "type": "function",
      "signature": "0x38d05c94"
    },
    {
      "constant": true,
      "inputs": [],
      "name": "getAllStoreFrontsByOwner",
      "outputs": [
        {
          "name": "",
          "type": "uint256[]"
        }
      ],
      "payable": false,
      "stateMutability": "view",
      "type": "function",
      "signature": "0x8e988910"
    },
    {
      "constant": false,
      "inputs": [
        {
          "name": "_name",
          "type": "string"
        },
        {
          "name": "_price",
          "type": "uint256"
        },
        {
          "name": "storeNumber",
          "type": "uint256"
        }
      ],
      "name": "addItem",
      "outputs": [
        {
          "name": "",
          "type": "bool"
        }
      ],
      "payable": false,
      "stateMutability": "nonpayable",
      "type": "function",
      "signature": "0xd5e6c333"
    },
    {
      "constant": false,
      "inputs": [
        {
          "name": "sku",
          "type": "uint256"
        }
      ],
      "name": "buyItem",
      "outputs": [],
      "payable": true,
      "stateMutability": "payable",
      "type": "function",
      "signature": "0xe7fb74c7"
    },
    {
      "constant": false,
      "inputs": [
        {
          "name": "sku",
          "type": "uint256"
        }
      ],
      "name": "shipItem",
      "outputs": [],
      "payable": false,
      "stateMutability": "nonpayable",
      "type": "function",
      "signature": "0xf61c899a"
    },
    {
      "constant": false,
      "inputs": [
        {
          "name": "sku",
          "type": "uint256"
        }
      ],
      "name": "receiveItem",
      "outputs": [],
      "payable": false,
      "stateMutability": "nonpayable",
      "type": "function",
      "signature": "0xa26be999"
    }
  ],
  "bytecode": "0x6080604052336000806101000a81548173ffffffffffffffffffffffffffffffffffffffff021916908373ffffffffffffffffffffffffffffffffffffffff160217905550614032806100536000396000f3fe608060405260043610610174576000357c0100000000000000000000000000000000000000000000000000000000900463ffffffff168062b2e1961461017957806304debb59146101cc578063057cc2a1146101f757806322702473146103725780632b7832b31461039d578063336989ae146103c857806338d05c94146105435780633bae81e114610684578063429b62e5146106b35780635172f77c1461082e578063847308a81461085d5780638e9889101461088c57806391f4245a146108f85780639757e8a314610964578063a1b141d41461098f578063a26be999146109ba578063b3205410146109f5578063bfb231d214610b36578063d2bf917714610c73578063d5e6c33314610dea578063d7adf53214610ede578063db0f989414610f43578063e53081d7146110ba578063e6191314146110e9578063e7fb74c714611158578063f1ba712714611186578063f205e981146111f2578063f61c899a14611261578063f8f98b791461129c575b600080fd5b34801561018557600080fd5b506101b26004803603602081101561019c57600080fd5b8101908080359060200190929190505050611413565b604051808215151515815260200191505060405180910390f35b3480156101d857600080fd5b506101e161156c565b6040518082815260200191505060405180910390f35b34801561020357600080fd5b506102466004803603602081101561021a57600080fd5b81019080803573ffffffffffffffffffffffffffffffffffffffff169060200190929190505050611572565b604051808673ffffffffffffffffffffffffffffffffffffffff1673ffffffffffffffffffffffffffffffffffffffff168152602001858152602001806020018060200184151515158152602001838103835286818151815260200191508051906020019080838360005b838110156102cc5780820151818401526020810190506102b1565b50505050905090810190601f1680156102f95780820380516001836020036101000a031916815260200191505b50838103825285818151815260200191508051906020019080838360005b83811015610332578082015181840152602081019050610317565b50505050905090810190601f16801561035f5780820380516001836020036101000a031916815260200191505b5097505050505050505060405180910390f35b34801561037e57600080fd5b50610387611705565b6040518082815260200191505060405180910390f35b3480156103a957600080fd5b506103b261170b565b6040518082815260200191505060405180910390f35b3480156103d457600080fd5b50610417600480360360208110156103eb57600080fd5b81019080803573ffffffffffffffffffffffffffffffffffffffff169060200190929190505050611711565b604051808673ffffffffffffffffffffffffffffffffffffffff1673ffffffffffffffffffffffffffffffffffffffff168152602001858152602001806020018060200184151515158152602001838103835286818151815260200191508051906020019080838360005b8381101561049d578082015181840152602081019050610482565b50505050905090810190601f1680156104ca5780820380516001836020036101000a031916815260200191505b50838103825285818151815260200191508051906020019080838360005b838110156105035780820151818401526020810190506104e8565b50505050905090810190601f1680156105305780820380516001836020036101000a031916815260200191505b5097505050505050505060405180910390f35b34801561054f57600080fd5b506105926004803603602081101561056657600080fd5b81019080803573ffffffffffffffffffffffffffffffffffffffff1690602001909291905050506118a4565b60405180806020018060200184151515158152602001838103835286818151815260200191508051906020019080838360005b838110156105e05780820151818401526020810190506105c5565b50505050905090810190601f16801561060d5780820380516001836020036101000a031916815260200191505b50838103825285818151815260200191508051906020019080838360005b8381101561064657808201518184015260208101905061062b565b50505050905090810190601f1680156106735780820380516001836020036101000a031916815260200191505b509550505050505060405180910390f35b34801561069057600080fd5b50610699611ac2565b604051808215151515815260200191505060405180910390f35b3480156106bf57600080fd5b50610702600480360360208110156106d657600080fd5b81019080803573ffffffffffffffffffffffffffffffffffffffff169060200190929190505050611c73565b604051808673ffffffffffffffffffffffffffffffffffffffff1673ffffffffffffffffffffffffffffffffffffffff168152602001858152602001806020018060200184151515158152602001838103835286818151815260200191508051906020019080838360005b8381101561078857808201518184015260208101905061076d565b50505050905090810190601f1680156107b55780820380516001836020036101000a031916815260200191505b50838103825285818151815260200191508051906020019080838360005b838110156107ee5780820151818401526020810190506107d3565b50505050905090810190601f16801561081b5780820380516001836020036101000a031916815260200191505b5097505050505050505060405180910390f35b34801561083a57600080fd5b50610843611e06565b604051808215151515815260200191505060405180910390f35b34801561086957600080fd5b50610872611fb7565b604051808215151515815260200191505060405180910390f35b34801561089857600080fd5b506108a1612168565b6040518080602001828103825283818151815260200191508051906020019060200280838360005b838110156108e45780820151818401526020810190506108c9565b505050509050019250505060405180910390f35b34801561090457600080fd5b5061090d6123d1565b6040518080602001828103825283818151815260200191508051906020019060200280838360005b83811015610950578082015181840152602081019050610935565b505050509050019250505060405180910390f35b34801561097057600080fd5b5061097961245f565b6040518082815260200191505060405180910390f35b34801561099b57600080fd5b506109a4612465565b6040518082815260200191505060405180910390f35b3480156109c657600080fd5b506109f3600480360360208110156109dd57600080fd5b810190808035906020019092919050505061246b565b005b348015610a0157600080fd5b50610a4460048036036020811015610a1857600080fd5b81019080803573ffffffffffffffffffffffffffffffffffffffff169060200190929190505050612599565b60405180806020018060200184151515158152602001838103835286818151815260200191508051906020019080838360005b83811015610a92578082015181840152602081019050610a77565b50505050905090810190601f168015610abf5780820380516001836020036101000a031916815260200191505b50838103825285818151815260200191508051906020019080838360005b83811015610af8578082015181840152602081019050610add565b50505050905090810190601f168015610b255780820380516001836020036101000a031916815260200191505b509550505050505060405180910390f35b348015610b4257600080fd5b50610b6f60048036036020811015610b5957600080fd5b81019080803590602001909291905050506127b7565b6040518080602001878152602001868152602001856003811115610b8f57fe5b60ff1681526020018473ffffffffffffffffffffffffffffffffffffffff1673ffffffffffffffffffffffffffffffffffffffff1681526020018373ffffffffffffffffffffffffffffffffffffffff1673ffffffffffffffffffffffffffffffffffffffff168152602001828103825288818151815260200191508051906020019080838360005b83811015610c33578082015181840152602081019050610c18565b50505050905090810190601f168015610c605780820380516001836020036101000a031916815260200191505b5097505050505050505060405180910390f35b348015610c7f57600080fd5b50610dd060048036036040811015610c9657600080fd5b8101908080359060200190640100000000811115610cb357600080fd5b820183602082011115610cc557600080fd5b80359060200191846001830284011164010000000083111715610ce757600080fd5b91908080601f016020809104026020016040519081016040528093929190818152602001838380828437600081840152601f19601f82011690508083019250505050505050919291929080359060200190640100000000811115610d4a57600080fd5b820183602082011115610d5c57600080fd5b80359060200191846001830284011164010000000083111715610d7e57600080fd5b91908080601f016020809104026020016040519081016040528093929190818152602001838380828437600081840152601f19601f8201169050808301925050505050505091929192905050506128d8565b604051808215151515815260200191505060405180910390f35b348015610df657600080fd5b50610ec460048036036060811015610e0d57600080fd5b8101908080359060200190640100000000811115610e2a57600080fd5b820183602082011115610e3c57600080fd5b80359060200191846001830284011164010000000083111715610e5e57600080fd5b91908080601f016020809104026020016040519081016040528093929190818152602001838380828437600081840152601f19601f8201169050808301925050505050505091929192908035906020019092919080359060200190929190505050612b99565b604051808215151515815260200191505060405180910390f35b348015610eea57600080fd5b50610f2d60048036036020811015610f0157600080fd5b81019080803573ffffffffffffffffffffffffffffffffffffffff169060200190929190505050612fa1565b6040518082815260200191505060405180910390f35b348015610f4f57600080fd5b506110a060048036036040811015610f6657600080fd5b8101908080359060200190640100000000811115610f8357600080fd5b820183602082011115610f9557600080fd5b80359060200191846001830284011164010000000083111715610fb757600080fd5b91908080601f016020809104026020016040519081016040528093929190818152602001838380828437600081840152601f19601f8201169050808301925050505050505091929192908035906020019064010000000081111561101a57600080fd5b82018360208201111561102c57600080fd5b8035906020019184600183028401116401000000008311171561104e57600080fd5b91908080601f016020809104026020016040519081016040528093929190818152602001838380828437600081840152601f19601f820116905080830192505050505050509192919290505050612fb9565b604051808215151515815260200191505060405180910390f35b3480156110c657600080fd5b506110cf61327a565b604051808215151515815260200191505060405180910390f35b3480156110f557600080fd5b506111426004803603604081101561110c57600080fd5b81019080803573ffffffffffffffffffffffffffffffffffffffff169060200190929190803590602001909291905050506135fe565b6040518082815260200191505060405180910390f35b6111846004803603602081101561116e57600080fd5b810190808035906020019092919050505061362e565b005b34801561119257600080fd5b5061119b61395f565b6040518080602001828103825283818151815260200191508051906020019060200280838360005b838110156111de5780820151818401526020810190506111c3565b505050509050019250505060405180910390f35b3480156111fe57600080fd5b5061124b6004803603604081101561121557600080fd5b81019080803573ffffffffffffffffffffffffffffffffffffffff169060200190929190803590602001909291905050506139ed565b6040518082815260200191505060405180910390f35b34801561126d57600080fd5b5061129a6004803603602081101561128457600080fd5b8101908080359060200190929190505050613a18565b005b3480156112a857600080fd5b506113f9600480360360408110156112bf57600080fd5b81019080803590602001906401000000008111156112dc57600080fd5b8201836020820111156112ee57600080fd5b8035906020019184600183028401116401000000008311171561131057600080fd5b91908080601f016020809104026020016040519081016040528093929190818152602001838380828437600081840152601f19601f8201169050808301925050505050505091929192908035906020019064010000000081111561137357600080fd5b82018360208201111561138557600080fd5b803590602001918460018302840111640100000000831117156113a757600080fd5b91908080601f016020809104026020016040519081016040528093929190818152602001838380828437600081840152601f19601f820116905080830192505050505050509192919290505050613b46565b604051808215151515815260200191505060405180910390f35b6000600a60003373ffffffffffffffffffffffffffffffffffffffff1673ffffffffffffffffffffffffffffffffffffffff16815260200190815260200160002060040160009054906101000a900460ff1615156114ff576040517f08c379a000000000000000000000000000000000000000000000000000000000815260040180806020018281038252603c8152602001807f55736572204e6f7420417574686f72697a65642e204f6e6c792053746f72654f81526020017f776e6572732063616e2063616c6c20746869732066756e6374696f6e0000000081525060400191505060405180910390fd5b817f43a8c77ec06fe8633dfc5e3ff3fe9b64ba34ec1d4f6f00cb640d2efba0e5e26d33604051808273ffffffffffffffffffffffffffffffffffffffff1673ffffffffffffffffffffffffffffffffffffffff16815260200191505060405180910390a260009050919050565b60035481565b600a6020528060005260406000206000915090508060000160009054906101000a900473ffffffffffffffffffffffffffffffffffffffff1690806001015490806002018054600181600116156101000203166002900480601f01602080910402602001604051908101604052809291908181526020018280546001816001161561010002031660029004801561164a5780601f1061161f5761010080835404028352916020019161164a565b820191906000526020600020905b81548152906001019060200180831161162d57829003601f168201915b505050505090806003018054600181600116156101000203166002900480601f0160208091040260200160405190810160405280929190818152602001828054600181600116156101000203166002900480156116e85780601f106116bd576101008083540402835291602001916116e8565b820191906000526020600020905b8154815290600101906020018083116116cb57829003601f168201915b5050505050908060040160009054906101000a900460ff16905085565b60015481565b60045481565b60096020528060005260406000206000915090508060000160009054906101000a900473ffffffffffffffffffffffffffffffffffffffff1690806001015490806002018054600181600116156101000203166002900480601f0160208091040260200160405190810160405280929190818152602001828054600181600116156101000203166002900480156117e95780601f106117be576101008083540402835291602001916117e9565b820191906000526020600020905b8154815290600101906020018083116117cc57829003601f168201915b505050505090806003018054600181600116156101000203166002900480601f0160208091040260200160405190810160405280929190818152602001828054600181600116156101000203166002900480156118875780601f1061185c57610100808354040283529160200191611887565b820191906000526020600020905b81548152906001019060200180831161186a57829003601f168201915b5050505050908060040160009054906101000a900460ff16905085565b6060806000600a60008573ffffffffffffffffffffffffffffffffffffffff1673ffffffffffffffffffffffffffffffffffffffff168152602001908152602001600020600201600a60008673ffffffffffffffffffffffffffffffffffffffff1673ffffffffffffffffffffffffffffffffffffffff168152602001908152602001600020600301600a60008773ffffffffffffffffffffffffffffffffffffffff1673ffffffffffffffffffffffffffffffffffffffff16815260200190815260200160002060040160009054906101000a900460ff16828054600181600116156101000203166002900480601f016020809104026020016040519081016040528092919081815260200182805460018160011615610100020316600290048015611a125780601f106119e757610100808354040283529160200191611a12565b820191906000526020600020905b8154815290600101906020018083116119f557829003601f168201915b50505050509250818054600181600116156101000203166002900480601f016020809104026020016040519081016040528092919081815260200182805460018160011615610100020316600290048015611aae5780601f10611a8357610100808354040283529160200191611aae565b820191906000526020600020905b815481529060010190602001808311611a9157829003601f168201915b505050505091509250925092509193909250565b6000600960003373ffffffffffffffffffffffffffffffffffffffff1673ffffffffffffffffffffffffffffffffffffffff16815260200190815260200160002060040160009054906101000a900460ff161515611bae576040517f08c379a000000000000000000000000000000000000000000000000000000000815260040180806020018281038252603a8152602001807f55736572204e6f7420417574686f72697a65642e204f6e6c7920437573746f6d81526020017f6572732063616e2063616c6c20746869732066756e6374696f6e00000000000081525060400191505060405180910390fd5b6000600960003373ffffffffffffffffffffffffffffffffffffffff1673ffffffffffffffffffffffffffffffffffffffff16815260200190815260200160002060040160006101000a81548160ff0219169083151502179055507f7d24b72bf22d2d662c9700540fd32920a5b5cec14223f2cdd6b64aae753bd36a33604051808273ffffffffffffffffffffffffffffffffffffffff1673ffffffffffffffffffffffffffffffffffffffff16815260200191505060405180910390a16001905090565b600b6020528060005260406000206000915090508060000160009054906101000a900473ffffffffffffffffffffffffffffffffffffffff1690806001015490806002018054600181600116156101000203166002900480601f016020809104026020016040519081016040528092919081815260200182805460018160011615610100020316600290048015611d4b5780601f10611d2057610100808354040283529160200191611d4b565b820191906000526020600020905b815481529060010190602001808311611d2e57829003601f168201915b505050505090806003018054600181600116156101000203166002900480601f016020809104026020016040519081016040528092919081815260200182805460018160011615610100020316600290048015611de95780601f10611dbe57610100808354040283529160200191611de9565b820191906000526020600020905b815481529060010190602001808311611dcc57829003601f168201915b5050505050908060040160009054906101000a900460ff16905085565b6000600a60003373ffffffffffffffffffffffffffffffffffffffff1673ffffffffffffffffffffffffffffffffffffffff16815260200190815260200160002060040160009054906101000a900460ff161515611ef2576040517f08c379a000000000000000000000000000000000000000000000000000000000815260040180806020018281038252603c8152602001807f55736572204e6f7420417574686f72697a65642e204f6e6c792053746f72654f81526020017f776e6572732063616e2063616c6c20746869732066756e6374696f6e0000000081525060400191505060405180910390fd5b6000600a60003373ffffffffffffffffffffffffffffffffffffffff1673ffffffffffffffffffffffffffffffffffffffff16815260200190815260200160002060040160006101000a81548160ff0219169083151502179055507f622ef5767f2e59920239325a01cd4a48f80bf095492a1b5e9f8c5d35d12f8c5433604051808273ffffffffffffffffffffffffffffffffffffffff1673ffffffffffffffffffffffffffffffffffffffff16815260200191505060405180910390a16001905090565b6000600b60003373ffffffffffffffffffffffffffffffffffffffff1673ffffffffffffffffffffffffffffffffffffffff16815260200190815260200160002060040160009054906101000a900460ff1615156120a3576040517f08c379a00000000000000000000000000000000000000000000000000000000081526004018080602001828103825260378152602001807f55736572204e6f7420417574686f72697a65642e204f6e6c792041646d696e7381526020017f2063616e2063616c6c20746869732066756e6374696f6e00000000000000000081525060400191505060405180910390fd5b6000600b60003373ffffffffffffffffffffffffffffffffffffffff1673ffffffffffffffffffffffffffffffffffffffff16815260200190815260200160002060040160006101000a81548160ff0219169083151502179055507f7d24b72bf22d2d662c9700540fd32920a5b5cec14223f2cdd6b64aae753bd36a33604051808273ffffffffffffffffffffffffffffffffffffffff1673ffffffffffffffffffffffffffffffffffffffff16815260200191505060405180910390a16001905090565b6060600a60003373ffffffffffffffffffffffffffffffffffffffff1673ffffffffffffffffffffffffffffffffffffffff16815260200190815260200160002060040160009054906101000a900460ff161515612254576040517f08c379a000000000000000000000000000000000000000000000000000000000815260040180806020018281038252603c8152602001807f55736572204e6f7420417574686f72697a65642e204f6e6c792053746f72654f81526020017f776e6572732063616e2063616c6c20746869732066756e6374696f6e0000000081525060400191505060405180910390fd5b600b60003373ffffffffffffffffffffffffffffffffffffffff1673ffffffffffffffffffffffffffffffffffffffff16815260200190815260200160002060040160009054906101000a900460ff16151561233e576040517f08c379a00000000000000000000000000000000000000000000000000000000081526004018080602001828103825260378152602001807f55736572204e6f7420417574686f72697a65642e204f6e6c792041646d696e7381526020017f2063616e2063616c6c20746869732066756e6374696f6e00000000000000000081525060400191505060405180910390fd5b600e60003373ffffffffffffffffffffffffffffffffffffffff1673ffffffffffffffffffffffffffffffffffffffff1681526020019081526020016000208054806020026020016040519081016040528092919081815260200182805480156123c757602002820191906000526020600020905b8154815260200190600101908083116123b3575b5050505050905090565b6060600880548060200260200160405190810160405280929190818152602001828054801561245557602002820191906000526020600020905b8160009054906101000a900473ffffffffffffffffffffffffffffffffffffffff1673ffffffffffffffffffffffffffffffffffffffff168152602001906001019080831161240b575b5050505050905090565b60025481565b60055481565b806002600381111561247957fe5b600c600083815260200190815260200160002060030160009054906101000a900460ff1660038111156124a857fe5b1415156124b457600080fd5b600c600083815260200190815260200160002060040160009054906101000a900473ffffffffffffffffffffffffffffffffffffffff168073ffffffffffffffffffffffffffffffffffffffff163373ffffffffffffffffffffffffffffffffffffffff1614151561252557600080fd5b6003600c600085815260200190815260200160002060030160006101000a81548160ff0219169083600381111561255857fe5b02179055507fa8142743f8f70a4c26f3691cf4ed59718381fb2f18070ec52be1f1022d855557836040518082815260200191505060405180910390a1505050565b6060806000600960008573ffffffffffffffffffffffffffffffffffffffff1673ffffffffffffffffffffffffffffffffffffffff168152602001908152602001600020600201600960008673ffffffffffffffffffffffffffffffffffffffff1673ffffffffffffffffffffffffffffffffffffffff168152602001908152602001600020600301600960008773ffffffffffffffffffffffffffffffffffffffff1673ffffffffffffffffffffffffffffffffffffffff16815260200190815260200160002060040160009054906101000a900460ff16828054600181600116156101000203166002900480601f0160208091040260200160405190810160405280929190818152602001828054600181600116156101000203166002900480156127075780601f106126dc57610100808354040283529160200191612707565b820191906000526020600020905b8154815290600101906020018083116126ea57829003601f168201915b50505050509250818054600181600116156101000203166002900480601f0160208091040260200160405190810160405280929190818152602001828054600181600116156101000203166002900480156127a35780601f10612778576101008083540402835291602001916127a3565b820191906000526020600020905b81548152906001019060200180831161278657829003601f168201915b505050505091509250925092509193909250565b600c602052806000526040600020600091509050806000018054600181600116156101000203166002900480601f0160208091040260200160405190810160405280929190818152602001828054600181600116156101000203166002900480156128635780601f1061283857610100808354040283529160200191612863565b820191906000526020600020905b81548152906001019060200180831161284657829003601f168201915b5050505050908060010154908060020154908060030160009054906101000a900460ff16908060030160019054906101000a900473ffffffffffffffffffffffffffffffffffffffff16908060040160009054906101000a900473ffffffffffffffffffffffffffffffffffffffff16905086565b60008083511180156128eb575060008251115b1515612985576040517f08c379a00000000000000000000000000000000000000000000000000000000081526004018080602001828103825260258152602001807f4669727374204e616d65206f72204c617374204e616d6520617070656172732081526020017f656d70747900000000000000000000000000000000000000000000000000000081525060400191505060405180910390fd5b61298d613e07565b60a0604051908101604052803373ffffffffffffffffffffffffffffffffffffffff1681526020016001815260200185815260200184815260200160011515815250905080600a60003373ffffffffffffffffffffffffffffffffffffffff1673ffffffffffffffffffffffffffffffffffffffff16815260200190815260200160002060008201518160000160006101000a81548173ffffffffffffffffffffffffffffffffffffffff021916908373ffffffffffffffffffffffffffffffffffffffff160217905550602082015181600101556040820151816002019080519060200190612a7e929190613e4f565b506060820151816003019080519060200190612a9b929190613e4f565b5060808201518160040160006101000a81548160ff021916908315150217905550905050336008600354815481101515612ad157fe5b9060005260206000200160006101000a81548173ffffffffffffffffffffffffffffffffffffffff021916908373ffffffffffffffffffffffffffffffffffffffff1602179055506003600081548092919060010191905055507f734765b09632d35d9db0ac9ac7b28ae07c812ed20302923ba707866f9fa74a9833604051808273ffffffffffffffffffffffffffffffffffffffff1673ffffffffffffffffffffffffffffffffffffffff16815260200191505060405180910390a1600191505092915050565b6000600a60003373ffffffffffffffffffffffffffffffffffffffff1673ffffffffffffffffffffffffffffffffffffffff16815260200190815260200160002060040160009054906101000a900460ff161515612c85576040517f08c379a000000000000000000000000000000000000000000000000000000000815260040180806020018281038252603c8152602001807f55736572204e6f7420417574686f72697a65642e204f6e6c792053746f72654f81526020017f776e6572732063616e2063616c6c20746869732066756e6374696f6e0000000081525060400191505060405180910390fd5b7fa96ae0fc3224ebd79eebfe54bd130cc9cb94416cddd1f2386115e00b725324686001546040518082815260200191505060405180910390a16000600d60003373ffffffffffffffffffffffffffffffffffffffff1673ffffffffffffffffffffffffffffffffffffffff16815260200190815260200160002060008481526020019081526020016000209050612d1a613ecf565b60c060405190810160405280878152602001600154815260200186815260200160006003811115612d4757fe5b81526020013373ffffffffffffffffffffffffffffffffffffffff168152602001600073ffffffffffffffffffffffffffffffffffffffff16815250905080600c600060015481526020019081526020016000206000820151816000019080519060200190612db7929190613e4f565b50602082015181600101556040820151816002015560608201518160030160006101000a81548160ff02191690836003811115612df057fe5b021790555060808201518160030160016101000a81548173ffffffffffffffffffffffffffffffffffffffff021916908373ffffffffffffffffffffffffffffffffffffffff16021790555060a08201518160040160006101000a81548173ffffffffffffffffffffffffffffffffffffffff021916908373ffffffffffffffffffffffffffffffffffffffff1602179055509050508082600101600060015481526020019081526020016000206000820151816000019080519060200190612eba929190613e4f565b50602082015181600101556040820151816002015560608201518160030160006101000a81548160ff02191690836003811115612ef357fe5b021790555060808201518160030160016101000a81548173ffffffffffffffffffffffffffffffffffffffff021916908373ffffffffffffffffffffffffffffffffffffffff16021790555060a08201518160040160006101000a81548173ffffffffffffffffffffffffffffffffffffffff021916908373ffffffffffffffffffffffffffffffffffffffff16021790555090505060018054016001819055506001925050509392505050565b600f6020528060005260406000206000915090505481565b6000808351118015612fcc575060008251115b1515613066576040517f08c379a00000000000000000000000000000000000000000000000000000000081526004018080602001828103825260258152602001807f4669727374204e616d65206f72204c617374204e616d6520617070656172732081526020017f656d70747900000000000000000000000000000000000000000000000000000081525060400191505060405180910390fd5b61306e613f3d565b60a0604051908101604052803373ffffffffffffffffffffffffffffffffffffffff1681526020016001815260200185815260200184815260200160011515815250905080600960003373ffffffffffffffffffffffffffffffffffffffff1673ffffffffffffffffffffffffffffffffffffffff16815260200190815260200160002060008201518160000160006101000a81548173ffffffffffffffffffffffffffffffffffffffff021916908373ffffffffffffffffffffffffffffffffffffffff16021790555060208201518160010155604082015181600201908051906020019061315f929190613e4f565b50606082015181600301908051906020019061317c929190613e4f565b5060808201518160040160006101000a81548160ff0219169083151502179055509050503360076002548154811015156131b257fe5b9060005260206000200160006101000a81548173ffffffffffffffffffffffffffffffffffffffff021916908373ffffffffffffffffffffffffffffffffffffffff1602179055506002600081548092919060010191905055507fc2d9373d77fba5321acddd9f4b8aa5968517854168c705830ce2e9e9a86cf95e33604051808273ffffffffffffffffffffffffffffffffffffffff1673ffffffffffffffffffffffffffffffffffffffff16815260200191505060405180910390a1600191505092915050565b6000600a60003373ffffffffffffffffffffffffffffffffffffffff1673ffffffffffffffffffffffffffffffffffffffff16815260200190815260200160002060040160009054906101000a900460ff161515613366576040517f08c379a000000000000000000000000000000000000000000000000000000000815260040180806020018281038252603c8152602001807f55736572204e6f7420417574686f72697a65642e204f6e6c792053746f72654f81526020017f776e6572732063616e2063616c6c20746869732066756e6374696f6e0000000081525060400191505060405180910390fd5b61336e613f85565b602060405190810160405280600554815250905080600d60003373ffffffffffffffffffffffffffffffffffffffff1673ffffffffffffffffffffffffffffffffffffffff1681526020019081526020016000206000600f60003373ffffffffffffffffffffffffffffffffffffffff1673ffffffffffffffffffffffffffffffffffffffff16815260200190815260200160002054815260200190815260200160002060008201518160000155905050600f60003373ffffffffffffffffffffffffffffffffffffffff1673ffffffffffffffffffffffffffffffffffffffff16815260200190815260200160002054600e60003373ffffffffffffffffffffffffffffffffffffffff1673ffffffffffffffffffffffffffffffffffffffff168152602001908152602001600020600f60003373ffffffffffffffffffffffffffffffffffffffff1673ffffffffffffffffffffffffffffffffffffffff168152602001908152602001600020548154811015156134ea57fe5b90600052602060002001819055506001600f60003373ffffffffffffffffffffffffffffffffffffffff1673ffffffffffffffffffffffffffffffffffffffff1681526020019081526020016000205401600f60003373ffffffffffffffffffffffffffffffffffffffff1673ffffffffffffffffffffffffffffffffffffffff168152602001908152602001600020819055506005547f8429e0c6f4d6518bbe01a6a52cdfa1d787de15f27c44d7e9aa712d1951f03abc33604051808273ffffffffffffffffffffffffffffffffffffffff1673ffffffffffffffffffffffffffffffffffffffff16815260200191505060405180910390a2600560008154809291906001019190505550600191505090565b600e6020528160005260406000208181548110151561361957fe5b90600052602060002001600091509150505481565b806000600381111561363c57fe5b600c600083815260200190815260200160002060030160009054906101000a900460ff16600381111561366b57fe5b14151561367757600080fd5b600c60008381526020019081526020016000206002015480341015151561369d57600080fd5b8233600c600086815260200190815260200160002060040160006101000a81548173ffffffffffffffffffffffffffffffffffffffff021916908373ffffffffffffffffffffffffffffffffffffffff160217905550600073__PriceCalculatorLib____________________63f87941c9600c6000888152602001908152602001600020600201546040518263ffffffff167c01000000000000000000000000000000000000000000000000000000000281526004018082815260200191505060206040518083038186803b15801561377657600080fd5b505af415801561378a573d6000803e3d6000fd5b505050506040513d60208110156137a057600080fd5b8101908080519060200190929190505050600c600087815260200190815260200160002060020154019050600c600086815260200190815260200160002060030160019054906101000a900473ffffffffffffffffffffffffffffffffffffffff1673ffffffffffffffffffffffffffffffffffffffff166108fc829081150290604051600060405180830381858888f19350505050158015613847573d6000803e3d6000fd5b506001600c600087815260200190815260200160002060030160006101000a81548160ff0219169083600381111561387b57fe5b02179055507f92f64ca637d023f354075a4be751b169c1a8a9ccb6d33cdd0cb3520543995727856040518082815260200191505060405180910390a1506000600c600083815260200190815260200160002060020154905060008134039050600c600084815260200190815260200160002060040160009054906101000a900473ffffffffffffffffffffffffffffffffffffffff1673ffffffffffffffffffffffffffffffffffffffff166108fc829081150290604051600060405180830381858888f19350505050158015613956573d6000803e3d6000fd5b50505050505050565b606060078054806020026020016040519081016040528092919081815260200182805480156139e357602002820191906000526020600020905b8160009054906101000a900473ffffffffffffffffffffffffffffffffffffffff1673ffffffffffffffffffffffffffffffffffffffff1681526020019060010190808311613999575b5050505050905090565b600d602052816000526040600020602052806000526040600020600091509150508060000154905081565b8060016003811115613a2657fe5b600c600083815260200190815260200160002060030160009054906101000a900460ff166003811115613a5557fe5b141515613a6157600080fd5b600c600083815260200190815260200160002060030160019054906101000a900473ffffffffffffffffffffffffffffffffffffffff168073ffffffffffffffffffffffffffffffffffffffff163373ffffffffffffffffffffffffffffffffffffffff16141515613ad257600080fd5b6002600c600085815260200190815260200160002060030160006101000a81548160ff02191690836003811115613b0557fe5b02179055507ff00b9a5725b80c54016f42114f6ed7792d22eecb116011c4afac29c57bef6c95836040518082815260200191505060405180910390a1505050565b6000808351118015613b59575060008251115b1515613bf3576040517f08c379a00000000000000000000000000000000000000000000000000000000081526004018080602001828103825260258152602001807f4669727374204e616d65206f72204c617374204e616d6520617070656172732081526020017f656d70747900000000000000000000000000000000000000000000000000000081525060400191505060405180910390fd5b613bfb613f99565b60a0604051908101604052803373ffffffffffffffffffffffffffffffffffffffff1681526020016001815260200185815260200184815260200160011515815250905080600b60003373ffffffffffffffffffffffffffffffffffffffff1673ffffffffffffffffffffffffffffffffffffffff16815260200190815260200160002060008201518160000160006101000a81548173ffffffffffffffffffffffffffffffffffffffff021916908373ffffffffffffffffffffffffffffffffffffffff160217905550602082015181600101556040820151816002019080519060200190613cec929190613e4f565b506060820151816003019080519060200190613d09929190613e4f565b5060808201518160040160006101000a81548160ff021916908315150217905550905050336006600454815481101515613d3f57fe5b9060005260206000200160006101000a81548173ffffffffffffffffffffffffffffffffffffffff021916908373ffffffffffffffffffffffffffffffffffffffff1602179055506004600081548092919060010191905055507f935d7739628521501e8645c5ec7db4bd37e9df5e73229a2f4eee66066049723633604051808273ffffffffffffffffffffffffffffffffffffffff1673ffffffffffffffffffffffffffffffffffffffff16815260200191505060405180910390a1600191505092915050565b60a060405190810160405280600073ffffffffffffffffffffffffffffffffffffffff1681526020016000815260200160608152602001606081526020016000151581525090565b828054600181600116156101000203166002900490600052602060002090601f016020900481019282601f10613e9057805160ff1916838001178555613ebe565b82800160010185558215613ebe579182015b82811115613ebd578251825591602001919060010190613ea2565b5b509050613ecb9190613fe1565b5090565b60c06040519081016040528060608152602001600081526020016000815260200160006003811115613efd57fe5b8152602001600073ffffffffffffffffffffffffffffffffffffffff168152602001600073ffffffffffffffffffffffffffffffffffffffff1681525090565b60a060405190810160405280600073ffffffffffffffffffffffffffffffffffffffff1681526020016000815260200160608152602001606081526020016000151581525090565b602060405190810160405280600081525090565b60a060405190810160405280600073ffffffffffffffffffffffffffffffffffffffff1681526020016000815260200160608152602001606081526020016000151581525090565b61400391905b80821115613fff576000816000905550600101613fe7565b5090565b9056fea165627a7a7230582089802059031111fd07e459de70344675764f3f1d68866349e303ea327a2fcdd40029",
  "source": "pragma solidity ^0.5.0;\n \nimport \"./Owned.sol\";  \nimport \"./PriceCalculatorLib.sol\"; \n\ncontract MarketPlace is Owned {\n\n\n   /* Add a variable called skuCount to track the most recent sku # */\n  uint public skuCount;\n  uint public customerCount;\n  uint public storeOwnerCount;\n  uint public adminCount;\n  uint public storeCount;\n\n  enum State { \n    ForSale,\n    Sold,\n    Shipped,\n    Received \n  }\n\n  /* Create a struct named Item.\n    Here, add a name, sku, price, state, seller, and buyer\n    We've left you to figure out what the appropriate types are,\n    if you need help you can ask around :)\n  */\n   struct Item{\n     string name;\n     uint sku;\n     uint price;\n     State state;\n     address payable seller;\n     address payable buyer;\n   }\n\n\tstruct StoreFront {\n\t\tuint storeNumber;\n\t\tmapping(uint => Item) itemsMap;\t\n\t}\t\n\n\tstruct OrderItem {\n\t\tuint productKey;\n\t\tuint quantity;\n\t\tuint price;\n\t}\n\n\tstruct StoreOwner {\n\t\taddress storeOwnerAddress;\n\t\tuint storeOwnerKey;\n\t\tstring firstName;\n\t\tstring lastName;\n\t\tbool isActive;\n\t}\n\n\tstruct Customer {\n\t\taddress customerAddress;\n\t\tuint customerKey;\n\t\tstring firstName;\n\t\tstring lastName;\n\t\tbool isActive;\n\t}\n\n\tstruct Admin {\n\t\taddress adminAddress;\n\t\tuint adminKey;\n\t\tstring firstName;\n\t\tstring lastName;\n\t\tbool isActive;\n\t}\n\t\n\n\n\t// Collections that can be returned from functions\n\taddress[] adminaddressArr;\n\taddress[] customerAddressArr;\n\taddress[] storeOwnerAdressArr;\n\n\tmapping (address => Customer) public customers;\n\tmapping (address => StoreOwner) public storeOwners;\n\tmapping (address => Admin) public admins;\n\n\n\t// Mapping of items\n\tmapping(uint => Item) public items;\n\n\t// Store Owner A --> (Struct) ,  Store Owner B --> (Struct)\n\tmapping (address => mapping(uint => StoreFront)) public ownerStoreFrontsMapMap;\n\t// Store Owner A --> [1,2,3] , Store Owner B --> [1,2,3]\n\tmapping (address => uint[]) public ownerStoreFrontIDsMapArr;\n\t// Store Owner A --> (count = 2) ,  Store Owner B --> (count = 5)\n\tmapping (address => uint) public ownerStoreFrontsCountMap;  \n\n\n\n\n\tevent LogRegisteredAdmin(address accountAddress);\n\tevent LogRegisteredCustomer(address accountAddress);\n\tevent LogRegisteredStoreOwner(address accountAddress);\n\tevent LogRegisteredStoreFront(address storeOwnerAddress, uint indexed storeNumber);\n\n\tevent LogUnRegisteredAdmin(address accountAddress);\n\tevent LogUnRegisteredCustomer(address accountAddress);\n\tevent LogUnRegisteredStoreOwner(address accountAddress);\n\tevent LogUnRegisteredStoreFront(address storeOwnerAddress, uint indexed storeNumber);\n\n\n\t// Events related to Buying/Selling of the products\n\tevent ForSale(uint sku);\n\tevent Sold(uint sku);\n\tevent Shipped(uint sku);\n\tevent Received(uint sku);\n\n\n\tmodifier onlyAdmin{\n\t\trequire(admins[msg.sender].isActive,\"User Not Authorized. Only Admins can call this function\");\n\t\t_;\n\t}\n\n\tmodifier onlyCustomer{\n\t\trequire(customers[msg.sender].isActive,\"User Not Authorized. Only Customers can call this function\");\n\t\t_;\n\t}\n\n\tmodifier onlyStoreOwner{\n\t\trequire(storeOwners[msg.sender].isActive,\"User Not Authorized. Only StoreOwners can call this function\");\n\t\t_;\n\t}\n\n\tmodifier verifyCaller (address _address) { \n\t\trequire (msg.sender == _address);\n\t\t _;\n\t}\n\n    modifier paidEnough(uint _price) { \n    \trequire(msg.value >= _price); \n    \t_;\n    }\n\n    modifier checkValue(uint _sku)  {\n\t    //refund them after pay for item (why it is before, _ checks for logic before func)\n\t    _;\n\t    uint _price = items[_sku].price;\n\t    uint amountToRefund = msg.value - _price;\n\t    items[_sku].buyer.transfer(amountToRefund);\n  \t}\n\n\tmodifier forSale(uint sku) {\n\t\trequire(items[sku].state == State.ForSale);\n\t\t_;\n\t}\n\n\tmodifier sold(uint sku) {\n\t\trequire(items[sku].state == State.Sold);\n\t\t_;\n\t}\n\n\tmodifier shipped(uint sku) {\n\t\trequire(items[sku].state == State.Shipped);\n\t\t_;\n\t}\n\n\tmodifier received(uint sku) {\n\trequire(items[sku].state == State.Received);\n\t_;\n\t}\n\n\n\n\t// Add Customer\n\tfunction registerCustomer(string memory firstName, string memory lastName) public returns (bool) {\n\t\trequire(bytes(firstName).length > 0 && bytes(lastName).length > 0 ,\"First Name or Last Name appears empty\");\n\t    Customer memory custObj = Customer(msg.sender,1,firstName,lastName,true);\n\t\tcustomers[msg.sender] = custObj;\n\t\tcustomerAddressArr[customerCount] = msg.sender;\n\t\tcustomerCount++;\n\t\temit LogRegisteredCustomer(msg.sender);\n\t\treturn true;\n\t}\n\n\n\tfunction registerAdmin(string memory firstName, string memory lastName) public returns (bool) {\n\t\trequire(bytes(firstName).length > 0 && bytes(lastName).length > 0 ,\"First Name or Last Name appears empty\");\n\t    Admin memory custObj = Admin(msg.sender,1,firstName,lastName,true);\n\t\tadmins[msg.sender] = custObj;\n\t\tadminaddressArr[adminCount] = msg.sender;\n\t\tadminCount++;\n\t\temit LogRegisteredAdmin(msg.sender);\n\t\treturn true;\n\t}\n\t// Add StoreOwner , Set store front count to be 10 max \n  \tfunction registerStoreOwner(string memory firstName, string memory lastName) public returns (bool){\n  \t\trequire(bytes(firstName).length > 0 && bytes(lastName).length > 0 ,\"First Name or Last Name appears empty\");\n  \t\tStoreOwner memory storeOwnerObj = StoreOwner(msg.sender,1,firstName,lastName,true);\n  \t\tstoreOwners[msg.sender] = storeOwnerObj;\n  \t\tstoreOwnerAdressArr[storeOwnerCount] = msg.sender;\n  \t\tstoreOwnerCount++;\n  \t\temit LogRegisteredStoreOwner(msg.sender);\n  \t\treturn true;\n  \t}\n\n  \t// Add StoreFront\n \tfunction registerStoreFront() public onlyStoreOwner returns (bool){\n \t\tStoreFront memory storeFrontObj = StoreFront(storeCount);\n  \t\townerStoreFrontsMapMap[msg.sender][ownerStoreFrontsCountMap[msg.sender]] = storeFrontObj;\n  \t\townerStoreFrontIDsMapArr[msg.sender][ownerStoreFrontsCountMap[msg.sender]] = ownerStoreFrontsCountMap[msg.sender];\n  \t\townerStoreFrontsCountMap[msg.sender] = ownerStoreFrontsCountMap[msg.sender] + 1; \n  \t\temit LogRegisteredStoreFront(msg.sender,storeCount);\n  \t\tstoreCount++;\n  \t\treturn true;\n \t}\n\n \tfunction unregisterCustomer() public onlyCustomer returns (bool){\n \t\tcustomers[msg.sender].isActive = false;\n \t\temit LogUnRegisteredAdmin(msg.sender);\n \t\treturn true;\n \t}\n\n  \tfunction unregisterStoreOwner() public onlyStoreOwner returns (bool){\n  \t\tstoreOwners[msg.sender].isActive = false;\n  \t\temit LogUnRegisteredStoreOwner(msg.sender);\n  \t\treturn true;\n  \t}\n\n  \tfunction unregisterAdmin() public onlyAdmin returns (bool){\n  \t\tadmins[msg.sender].isActive = false;\n  \t\temit LogUnRegisteredAdmin(msg.sender);\n  \t\treturn true;\n  \t}\n\n  \tfunction unregisterStoreFront(uint storeNumber) public onlyStoreOwner returns (bool){\n  \t\temit LogUnRegisteredStoreFront(msg.sender, storeNumber);\n  \t\treturn false;\n  \t}\n\n\t// Function to get list of customer addresses\n\tfunction getCustomers() public view returns (address[] memory) {\n\t\treturn customerAddressArr;\n\t}\n\n\tfunction getCustomerInfo(address customeraddress) public view returns (string memory firstName, string memory lastName,bool isActive){\n\t\treturn( customers[customeraddress].firstName, customers[customeraddress].lastName, customers[customeraddress].isActive);\n\t}\n\t// Function to get list of store owner addresses\n\tfunction getStoreOwners() public view returns (address[] memory) {\n\t\treturn storeOwnerAdressArr;\n\t}\n\t// Function to get list info for a store owner\n\tfunction getStoreOwnerInfo(address storeowneraddress) public view returns (string memory firstName, string memory lastName,bool isActive){\n\t\treturn( storeOwners[storeowneraddress].firstName, storeOwners[storeowneraddress].lastName, storeOwners[storeowneraddress].isActive);\n\t}\n\n\tfunction getAllStoreFrontsByOwner() public onlyStoreOwner onlyAdmin view returns (uint[] memory) {\n\t\treturn ownerStoreFrontIDsMapArr[msg.sender];\n\t}\n\n\tfunction addItem(string memory _name, uint _price,uint storeNumber) public onlyStoreOwner returns(bool){\n\t    emit ForSale(skuCount);\n\t    StoreFront storage storeFrontObj= ownerStoreFrontsMapMap[msg.sender][storeNumber];\n\t    Item memory newItem = Item({name: _name, sku: skuCount, price: _price, state: State.ForSale, seller: msg.sender, buyer: address(0)}); \n\t    items[skuCount] = newItem;\n\t    storeFrontObj.itemsMap[skuCount] = newItem;\n\t    skuCount = skuCount +1;\n\t    return true;\n\t}\n\n\tfunction buyItem(uint sku) public payable forSale(sku) paidEnough(items[sku].price) checkValue(sku)\n\t{\n\t\t    items[sku].buyer = msg.sender;\n\t\t    uint price_with_shipping = items[sku].price + PriceCalculatorLib.calculateShippingCharge(items[sku].price);\n\t\t    items[sku].seller.transfer(price_with_shipping); \n\t\t    items[sku].state = State.Sold;\n\t\t    emit Sold(sku);\n\t}\n\n\tfunction shipItem(uint sku) public sold(sku) verifyCaller(items[sku].seller)\n\t{\n\t\t    items[sku].state = State.Shipped;\n\t\t    emit Shipped(sku);\n\t}\n\n\tfunction receiveItem(uint sku) public shipped(sku) verifyCaller(items[sku].buyer)\n\t{\n\t\t    items[sku].state = State.Received;\n\t\t    emit Received(sku);\n\t}\n}\n\n",
  "sourcePath": "/home/rps278/consensus-blockchain/finalproject/finale/contracts/MarketPlace.sol",
  "compiler": {
    "name": "solc",
    "version": "0.5.0+commit.1d4f565a.Emscripten.clang"
  },
  "schemaVersion": "3.0.1",
  "updatedAt": "2019-01-28T03:10:26.494Z",
  "devdoc": {
    "methods": {}
  },
  "userdoc": {
    "methods": {}
  }
}