{
  "contractName": "PriceCalculatorLib",
  "abi": [
    {
      "constant": true,
      "inputs": [
        {
          "name": "price",
          "type": "uint256"
        }
      ],
      "name": "calculateShippingCharge",
      "outputs": [
        {
          "name": "shippingCharge",
          "type": "uint256"
        }
      ],
      "payable": false,
      "stateMutability": "pure",
      "type": "function",
      "signature": "0xf87941c9"
    }
  ],
  "bytecode": "0x60e261002f600b82828239805160001a6073146000811461001f57610021565bfe5b5030600052607381538281f3fe73000000000000000000000000000000000000000030146080604052600436106056576000357c0100000000000000000000000000000000000000000000000000000000900463ffffffff168063f87941c914605b575b600080fd5b608460048036036020811015606f57600080fd5b8101908080359060200190929190505050609a565b6040518082815260200191505060405180910390f35b6000606482111560ac576014905060b1565b600590505b91905056fea165627a7a72305820bdb93493796b5878b84574335f1abc87b3f22327a82feb35f6ec6c4393006dd90029",
  "source": "pragma solidity ^0.5.0;\n\nlibrary PriceCalculatorLib {\n\tfunction calculateShippingCharge(uint price) public pure returns (uint shippingCharge)\n\t{\n\t\tif (price > 100 ) \n\t\t\treturn 20;\n\t\telse\n\t\t\treturn 5; \n\t}\n}",
  "sourcePath": "/home/rps278/consensus-blockchain/finalproject/finale/contracts/PriceCalculatorLib.sol",
  "compiler": {
    "name": "solc",
    "version": "0.5.0+commit.1d4f565a.Emscripten.clang"
  },
  "schemaVersion": "3.0.1",
  "updatedAt": "2019-01-28T03:10:26.480Z",
  "devdoc": {
    "methods": {}
  },
  "userdoc": {
    "methods": {}
  }
}